:020000041000EA
:1000000000B5324B212058609868022188439860DF
:10001000D860186158612E4B002199600221596106
:100020000121F02299502B49196001219960352056
:1000300000F044F80222904214D00621196600F024
:1000400034F8196E01211966002018661A6600F04E
:100050002CF8196E196E196E052000F02FF8012189
:100060000842F9D1002199601B49196000215960AB
:100070001A491B48016001219960EB211966A021F2
:10008000196600F012F800219960164914480160C1
:100090000121996001BC002800D000471248134993
:1000A000086003C880F30888084703B5996A0420EC
:1000B0000142FBD001200142F8D103BD02B5186610
:1000C0001866FFF7F2FF186E186E02BD00000240BE
:1000D000000000180000070000035F00212200005C
:1000E000F4000018222000A00001001008ED00E03C
:1000F00000000000000000000000000074B24E7A12
:1001000000200420F7010010C3010010C5010010F9
:10011000C1010010C1010010C1010010C101001097
:10012000C1010010C1010010C1010010C701001081
:10013000C1010010C1010010C9010010CB01001065
:10014000CD010010CD010010CD010010CD01001037
:10015000CD010010CD010010CD010010CD01001027
:10016000CD010010CD010010CD010010CD01001017
:10017000CD010010CD010010CD010010CD01001007
:10018000CD010010CD010010CD010010CD010010F7
:10019000CD010010CD010010CD010010CD010010E7
:1001A000CD010010CD010010CD010010CD010010D7
:1001B000CD010010CD010010CD010010CD010010C7
:1001C00000BE00BE00BE00BE00BE00BEEFF3058054
:1001D000103800BEF2EB8871D4630010F863001091
:1001E0003802001090A31AE71E481F49086006C88D
:1001F00081F3088810471D480068002801D019487D
:10020000F3E70DA40ECC002902D000F012F8F9E7B4
:100210001749184A002000E001C19142FCD116495B
:100220008847164988471649884700BEFDE701C937
:1002300001C29A42FBD37047F8630010C00000204F
:1002400080100020B873001000000420000004207B
:10025000B8730010001004200010042000000000FB
:10026000704700000000000008ED00E0000000D032
:1002700080100020902300200D280010650300103E
:1002800005280010F8B5C04606480749091A8B1022
:10029000C90FC91810B5491003D0044B002B00D06A
:1002A000984710BD80100020801000200000000042
:1002B000054B10B5002B03D00449054800E000BFF2
:1002C000FFF7E2FF10BDC04600000000242300201D
:1002D000145600100122024B002000211A707047B2
:1002E000980F002010B584B0072829D1174B1A7831
:1002F000002A25D00022164C1A70206807210130F0
:1003000002F032F9134B21601A680A3A1A601A682F
:10031000002A17DB01F024FC040001F037FE002363
:100320000D4A12184B41002B02DA01220B4B5242AC
:100330000021029101910A492000009101F014FC72
:1003400004B010BD64221A60E4E7C046980F002094
:100350001C2300209C0F0020F0490200FFFFFF7FBC
:10036000D5020010F0B5CE46474680B59DB002F0EC
:1003700059FB072000F000FED02380221B069A6262
:1003800001210022072000F07BFD01220421264BE1
:10039000072000F089FDFA20400001F0E1FC00F0A8
:1003A0004BF800F0C7F821490FAB0C0031221800C0
:1003B000984601AF02F0FEF923003A00343323CB14
:1003C00023C223CB23C21B68210008AE1360330075
:1003D000503115C915C315C915C30A6800241A6020
:1003E000134B144D99464B461868C0B200F0ACF858
:1003F0002B6821009B00F85800F042F92B6821007F
:100400009B00F05800F0FAF92000072102F0D4F820
:1004100089B2C800401A404400F038FB0134322051
:10042000A4B201F09DFCDEE7E50200105C5800106C
:100430009C0F00201C230020F0B5C64600B5174FC6
:1004400084B01749380005F009F80321122000F0A4
:10045000FDFC0321132000F0F9FC002201211220F1
:1004600000F00EFD00220121132000F009FD1923E8
:10047000984600260B4C03ADA04423782E706B7079
:100480002A0002233C2138000096013405F00EF8C2
:100490004445F2D104B080BCB846F0BD68100020DD
:1004A000801A0600C8580010F0B5C64603000027A1
:1004B00000B51E4E88B003AD503B6B7004000223A4
:1004C0002A003C212F703000009704F0EFFF022338
:1004D0002A003C212F803000009704F0E7FF8023A2
:1004E0005B012B802A0002233C213000009704F09E
:1004F000DDFF40232B700E4BE401E4188023984667
:10050000A0440D236B4421001022180002F052F980
:10051000103411232A003C213000009704F0C6FF5C
:100520004445EED108B080BCB846F0BD681000204C
:10053000A01A0020802210B500210248D20002F04B
:1005400033F910BDA01A00200301484A181A484B7D
:1005500010B5FF21DA676B2299547E390132995424
:1005600063282EDC01329954013299546F22812183
:1005700099547022812199547122812199547222B7
:100580008121995473228121995474228121995493
:1005900075228121995476228121995477228121D3
:1005A00099547822812199547922812199547A226F
:1005B0008121995481217B2200209954FFF774FFF7
:1005C00010BDBD226D241A55C7284CDD6E215A542A
:1005D000BE318842CADB6F215A542231FF31884232
:1005E000C7DB70215A548531FF318842C4DB712149
:1005F0005A54E831FF318842C1DB72215A54AF218D
:1006000089008842BEDB73215A54C8218900884280
:10061000BBDB74215A54E12189008842B8DB752183
:100620005A54FA2292009042B5DB7621BD225A54E8
:1006300010498842B2DD77215A549621C900884278
:10064000AFDB78215A540C498842ADDD79215A54E8
:10065000AF21C9008842AADB7A215A54074A4331A4
:100660009042A8DCA6E74F3A99547FE781FF3C3CD3
:10067000A01A00204B04000013050000DB05000059
:10068000F0B5C64600B580460F0004F019FF584D7E
:10069000040080220021280002F086F843461E78DC
:1006A0006300152C00D86DE0E4186400803CA4B20F
:1006B000210038001E3101F057FF0B1C89B21429AC
:1006C00058D39BB2143B1A1C9BB2A34250D894B28D
:1006D000002E42D04546474F300000F039FA4346DD
:1006E000EA1A53009B185B001A1B7F2A06D8E026E3
:1006F000B600B4460178BA18624411705A1C121B35
:100700007F2A06D8E026B600B4464178BA1862447B
:1007100011709A1C121B7F2A06D8E026B600B44638
:100720008178BA1862441170DA1C121B7F2A02D831
:10073000C6782F4956541A1D121B7F2A02D80679F3
:100740002B49565405331B1B7F2B0CD84179284A63
:10075000013599542E78002EBED10720FFF7A4FE54
:1007600080BCB846F0BD6E780135002EB4D1F4E7F8
:10077000221CACE714239BB2143B1A1C9BB2A3426D
:10078000A5D9F5E780271B195B00FF1AE0239B0022
:100790009C46194B7F0867449C4644466544002E9E
:1007A000DBD0300000F0D4F9002808D1667801349D
:1007B000002ED2D0300000F0CBF90028F6D043460E
:1007C000E21A53009B185B000278DB19EA54427866
:1007D000EB185A70827801349A70C278DA70027914
:1007E0001A7142795A712678002EDAD1B5E7C046DF
:1007F000201E0020A01A002080FCFFFFF8B5CE4686
:10080000474680B580460F0004F05AFE9B4D80227B
:1008100000210400280001F0C7FF280080220021E9
:10082000803001F0C1FF43461E78102C00D8CFE085
:10083000934B3800E518ED00ADB229001E3101F0F0
:1008400093FE0B1C89B2142900D2B8E09BB2143B72
:100850001C1C9BB2AB4200D9AFE0A4B2002E00D169
:10086000A1E04546874F04E06E780135002E00D1A7
:1008700099E0300000F07AF90028F5D04346EB1AF1
:10088000DB00191B7F290DD87E4A06885218A0214B
:10089000890051180E70C02189008C46018862447D
:1008A000090A11705A1C121B7F2A0DD875494688F7
:1008B0008A18A021890051180E70C02189008C4629
:1008C00041886244090A11709A1C121B7F2A0DD8B4
:1008D0006C4986888A18A021890051180E70C021A1
:1008E00089008C4681886244090A1170DA1C121B47
:1008F0007F2A0DD86349C6888A18A021890051181B
:100900000E70C02189008C46C1886244090A1170AA
:100910001A1D121B7F2A0DD85A4906898A18A02150
:10092000890051180E70C02189008C4601896244EB
:10093000090A11705A1D121B7F2A0CD8A021468962
:10094000BA18890051180E70C02189008C4641895F
:100950006244090A11709A1D121B7F2A0CD8A0212B
:100960008689BA18890051180E70C02189008C46FA
:1009700081896244090A117007331B1B7F2B00D940
:1009800072E7A022C189FB1892009A181170C02248
:1009900092009446C2896344120A1A706E78013537
:1009A000002E00D065E70520FFF77EFD0620FFF74B
:1009B0007BFDC0BCB946B046F8BD2C1C4DE71423E6
:1009C0009BB2143B1C1C9BB2AB4200D845E7F4E73A
:1009D00010273F1BFF0044467F08002EE3D0A023D2
:1009E0009B009946284BB9449C46C0239B00654414
:1009F0009C466744300000F0B9F8002808D16678BA
:100A00000134002ECFD0300000F0B0F80028F6D02E
:100A100043464A46E31A0188DB00D218A9540188EC
:100A2000FB18090AE9544188AA1851704188EB184B
:100A3000090A59708188013491708188090A997076
:100A4000C188D170C188090AD970018911710189E1
:100A5000090A1971418951714189090A59718189BC
:100A600091718189090A9971C189D171C289120A6A
:100A7000DA712678002EBDD195E7C046201D0020F2
:100A8000F0FFFF1FA01A002080FDFFFFF8B54E46C3
:100A90004546DE4657468023E0B506002A4C9B00BB
:100AA000E518200080220021803401F07DFEA5425F
:100AB000F7D11F2399460723B04604259B46234CB4
:100AC00043461B7864211801C01A400001F04CFD18
:100AD000C0B2031C042800D204234A460021D01AC5
:100AE000C0B21F225E461640B44601266746BE408D
:100AF000D3080133DB015B195B18B446E65C013AAD
:100B0000B24666465746D2B23E43E6549042E9D1D9
:100B100001310E29E5D101239C461235E044822D96
:100B2000CED10120FFF7C0FC0220FFF7BDFC03205F
:100B3000FFF7BAFC0420FFF7B7FCF0BCBB46B24697
:100B4000A946A046F8BDC046201B0020A01A0020E0
:100B50002038C3B25F2B05D843001818024B400061
:100B6000C01870470020FCE7E45800102038C3B2DA
:100B70005F2B03D8024B0001C01870470020FCE730
:100B8000205B0010D0231B061B68AC4A9900F0B50F
:100B9000DE468B4651585A4253412F2257464E4605
:100BA00045465B4293439A46A54BE0B59C4683B0CD
:100BB00000260191E244002938D0A24B99465246C2
:100BC000F30808339B009D580123340098460836EB
:100BD000002D22D00F212000294001342D090029A9
:100BE00019D04B465A469A580300C240203BDB17A7
:100BF0001340424613420CD107220F0002409200DC
:100C000097403A00C308904F3C339B00DA51019B58
:100C10009847002D01D0B442DCD3202ECFD103B0B1
:100C2000F0BCBB46B246A946A046F0BD854E5F4625
:100C300000210F23B346CC08220050460832920010
:100C40001258002A00D1D0E0180010408046100948
:100C500013421AD05D46ED59A94620256D42AC4697
:100C60008C446546ED17AC464D46CD40A9466546D9
:100C70004E4635400126354204D14646724D3C343D
:100C8000A4006651002800D1AFE01C000440A44637
:100C9000140A03421AD0481C80465846C05946469A
:100CA00081464D460800F5401F38C01728400125F1
:100CB000284208D165462D01AC46F0086646624DD3
:100CC0003C3080004651002C00D18EE018002040BE
:100CD0008446100B234211D08C1CA0465C46E4597C
:100CE0004646A1464D460C00F5401E3CE4172C40FC
:100CF00001252C4200D182E0002876D01C0004405F
:100D0000A446140C034210D0C81C80465846C05953
:100D1000464681464D460800F5401D38C01728401C
:100D20000125284275D0002C5FD018002040804655
:100D3000100D23420ED00C1DA4466546414CE459CB
:100D4000EC40A1460C004D461C3CE40F2C426AD0FE
:100D500000284AD01C000440A446140E034218D0B8
:100D6000481D804645463748C059E840814608003E
:100D70004D461B38C00F284209D165462D05AC46AB
:100D800040466646C008304D3C3080004651002C3D
:100D90002BD0180020408446120F23422AD0294825
:100DA0008C1D8146C059E0408046080045461A38EF
:100DB000C00F284206D1E0086446234D3C3024068B
:100DC00080004451002A10D04846C059CC1DE04054
:100DD0008446080065461938C00F284205D1E0084E
:100DE0003C30194C1207800002510831202900D0F4
:100DF00021E714E7002AF8D012488146E4E7654667
:100E00002D02AC46F40866460F4D3C34A4006651F2
:100E100072E765462D03AC46F00866460A4D3C3045
:100E2000800046517FE745462D04A8466446464665
:100E3000E408054D3C34A400665189E7A01E00205B
:100E4000304101405423002000400140094A830002
:100E50009A1810B514684022544080322240064C43
:100E6000C000A44663441A60044B9C466044416041
:100E700010BDC04604C0014004D001400040014004
:100E8000074B8000C3181B68C90092000A435A40F0
:100E90000C231340034A9446604403607047C046E5
:100EA00004C0014004D00140F8B545469846D0231F
:100EB0001B06DE461C689B462B4B57469A46A300F2
:100EC0004E469946E0B5534616004A469B580700E1
:100ED0000D00002B34D04346002B3FD053464A46EA
:100EE00041469950D0231B061C6863425C412F2267
:100EF0000720634293431D4A38409446FA08110084
:100F0000800085403C311A486344890092000D50AE
:100F10009B18002E0ED0802292019446634401213A
:100F20000D201D6000F00AF9F0BCBB46B246A94690
:100F3000A046F8BDC0229201944663441D60F3E7C9
:100F40004346002BD1D0534641460D2099500022F4
:100F5000084900F055F95B461C68C6E70D200549B5
:100F600000F048FABAE7C046A01E00203041014018
:100F700000400140850B00100123D022834012065F
:100F800093629361094A83009A1811684022514084
:100F900080320A400649C0008C4663441A60054B03
:100FA0009C460523604443607047C04604C001402E
:100FB00004D00140004001408023DB051868000F89
:100FC0007047C0460FB400B5084883B001F078FD03
:100FD000049B002B07D005A91800019101F0F8FB34
:100FE000034801F06DFD012001F00AFC08570010D4
:100FF0001857001070B5EFF3108C72B60D4D2B68BA
:10100000002BFCD0BFF35F8F0724CB08C618C05C51
:1010100001230C40A3401C000440034207D11843A5
:101020003070BFF35F8F2C608CF3108870BD1000A0
:10103000FFF7C8FF2C0100D0F8B54746CE468846DA
:1010400080B5EFF3108C72B61C4D2C68002CFCD0D0
:10105000BFF35F8F9A4222D807210126894602E01A
:101060000132934218D34D4637001540AF40D408A3
:101070000119045D2742F3D110003C430C70BFF30B
:101080005F8F00220D4B1A608CF3108800280EDB56
:10109000C0BCB946B046F8BD01204042EFE7BFF3FF
:1010A0005F8F00232B608CF3108801204042434661
:1010B000002BEDD00898FFF785FFC0462C0100D02B
:1010C000044A1078431CDBB2172B00D9102313708D
:1010D0007047C046A00F002010B5064B064C82B0EA
:1010E0000100009318221F232000FFF7A5FF02B084
:1010F00010BDC0461C570010B01E00200021044B3C
:10110000044ABFF35F8F02C39342FAD17047C046CF
:10111000000100D0800100D0054B064A1360064A4A
:10112000136053609360D3601361536193617047A0
:101130008080808000E400E004E400E01F23184089
:101140001E3B8340002905D0C021044A490053506A
:1011500013607047802201498B50FAE700E100E0FC
:1011600001228240034B1B6813405A1E9341D8B2A0
:101170007047C04600E100E001238340014A13604C
:101180007047C04600E200E0064B10309B688000CC
:10119000C358054A00209B1A2F229A424041C0B2F0
:1011A0007047C04600ED00E0A40F002070B50D00B0
:1011B000EFF3108672B60F4A1368002BFCD0BFF312
:1011C0005F8F0D4B10309B6884001B590B4A934274
:1011D00003D09D4201D001F0E9F8074B9B681D51F7
:1011E000BFF35F8FBFF35F8F0022024B1A6086F35D
:1011F000108870BD240100D000ED00E0CD0100108A
:10120000F0B557464E46DE464546E0B585B0060089
:1012100000911700EFF3108B72B66A4A1368002B27
:10122000FCD0BFF35F8F0025674B5D579A46002DBA
:1012300000DAA9E06B00654C01935B199B009846AE
:10124000A146C1444B4652469B7910361370604B01
:10125000B6009B6899590B1B2F2B33D95D4B9942D4
:1012600000D0ACE0019B42469C465B4B6544AD0020
:1012700063535A4B0232A218043B9B1A1B05584A6F
:101280005B0D651913436B80564B0121AB80FF2327
:10129000AB71009BEF71AB604B460B4319004C4B9D
:1012A0009B689951BFF35F8FBFF35F8F0022454B5F
:1012B0001A608BF3108805B0F0BCBB46B246A94655
:1012C000A046F0BD01200A008243D3798C46BB4280
:1012D00031D84546130044491B1B5B415943090D56
:1012E0003D4B63533D4B02356519043B5B1B1B05AE
:1012F0003B4D5B0D2B43AA464D466B800425AC4607
:101300005546E044131F44441B1B1B055B0D1D4346
:101310004B46997100999D8099604946DF71334B26
:1013200001431360BBE75800C01880002018C17942
:10133000B9422FD902000623D356002BF3DA0293C9
:101340002B4B61460393131D9A4604235B429C4634
:10135000E14450464B461B1A1B055B0D9C46204B37
:10136000957198466346404603439380019B5A1902
:101370009200039BA418A380029B1C4AA371009BAC
:101380002260E771A3608AE701F010F80025534658
:101390005D574FE7908802934005131D9A46031549
:1013A00061469C464046D444634604302018181ACF
:1013B000E0230005400D1B0218430390C5E700F031
:1013C000F5FF4FE7240100D089230020A40F00205F
:1013D00000ED00E0CD01001000A1FFFFD40F0020C0
:1013E00000E0FFFF01BDFFFFAAAA000001488047FF
:1013F00001BD0000F0B5DE4657464E464546E0B515
:101400000C0083B0EFF3108872B6634A1368002BA8
:10141000FCD0BFF35F8F614B61499A6803001033C2
:101420009F00D55901938D4243D0A54254D05D4EC3
:10143000AA1B2F2A3DD85C4B9B461B68994601236B
:101440001A009C4682404B4613401F229946634631
:10145000024093409A4680225B4650469850BFF324
:101460005F8FEFF305839B46002B37D0019B5B45D5
:1014700001D000F09BFF01232A009A439068844228
:1014800008D176E04B005B189B00F3189868844203
:1014900036D01A00062151560029F3DA844254D07E
:1014A0004B46002B27D0C02251463F4B520099504B
:1014B00019603A4B9B68DD51BFF35F8FBFF35F8FBD
:1014C0000022354B1A6088F3108803B0F0BCBB468D
:1014D000B246A946A046F0BD0D00EAE72A006346E1
:1014E0009A4390688442D5D10620105613000028F4
:1014F0000ADA0D0031E0802351462B4AD150D8E75B
:1015000006201856002821DB4200111889007418A3
:101510008B46A1689960E179D9710621615699716C
:10152000002924DBA488F11A640524155C440919F8
:1015300009051E4C490D2143998013181C4A9B0034
:101540001178F31899711070AAE713005946002911
:1015500014D1FF3191711749918015490A789A7118
:10156000154A9B1B5B415A43120D0A7098E71149BB
:10157000E2E70620105613000028C5DA0F4A10498A
:10158000D21A083A5002400D014399800D49520881
:101590000A43DA8084E7C046240100D000ED00E071
:1015A000CD010010A40F002000E100E000E0FFFFEB
:1015B0008923002001BDFFFFAAAA0000DE0F002042
:1015C00000F0FFFF00F8FFFF70B501240443EFF3C4
:1015D0000581EFF3108C72B6214A1368002BFCD002
:1015E000BFF35F8F1F4B05001F4AED1A6D416A4321
:1015F000120D1E4D8900AE6852B27658A6421CD01C
:101600000621595691421CD012215956914222D09E
:101610001E215956914220D02A2159560324914225
:1016200010D0134B19781A708171BFF35F8F0022AD
:101630000B4B1A608CF3108870BDAB680D4C5C507E
:10164000EFE700246100091989005B18FF219971F7
:1016500009499980E5E70124F4E70224F2E7C0464E
:10166000240100D0A40F0020AAAA000000ED00E091
:1016700089230020CD01001001BDFFFF10B5084BEC
:10168000084C82B001000093002205232000FFF7E0
:10169000D3FC002801DB1F23181A02B010BDC0467E
:1016A000385700108D230020024B9C46614489006E
:1016B000016070474000003470B5114C114DAC42D0
:1016C0000FD2FF262368002B0CD0FFF7F9FC010096
:1016D0002000FFF7E9FFA680BFF35F8F0834AC421C
:1016E000F0D370BDFFF7ECFC01002000FFF7DCFF3A
:1016F0002671BFF35F8F0834AC42E3D3F1E7C046F5
:10170000781000208010002010B50400FFF7D8FCEE
:1017100001002000FFF7C8FFFF232371BFF35F8F95
:1017200010BDC04610B504000120FFF7D5FC034BE7
:10173000C3189B002360BFF35F8F10BD40000034CF
:10174000034B9C46614489000160BFF35F8F704783
:10175000400000340A4B1968EFF3108072B60A6833
:10176000002AFCD0BFF35F8F1B68BFF35F8F00229E
:101770001A6080F3108840BF002000217047C046E7
:1017800068230020F0B5DE4657464E464546E0B594
:1017900087B0EFF30583032201251A40954091009D
:1017A0008846A946B34B03925C58B34B1D60B34BBC
:1017B00004934B46B24843630823E55E002D37DAB5
:1017C000A3881BB2002B00DBADE0A379002B00D077
:1017D000EEE00823E05E002820DB430062691B186E
:1017E000DB00D3189E68DD68731C00D111E1A448AA
:1017F00001004144826A0B69B71A9B1A9F4215D3B4
:101800000123026A039883401A420FD09C4800F0DB
:10181000B5FB8D4202DCCCD18642CAD940BF07B0AD
:10182000F0BCBB46B246A946A046F0BD0E61EDE74E
:1018300062696B0092465B19DB009A4453469E68CE
:10184000DF6800F09BFB8F42BADC00D103E1002F80
:1018500000DAE8E05246534652691B699346049AFF
:10186000934200D1D9E052460821605E52880004BC
:10187000594610439847009001910099019A0B0036
:101880001000134300D1CEE013000A00B61A9F41A6
:10189000002806DB7A4800F071FB009E019F361895
:1018A0004F4153469E60DF6000229A5E002A00DAB4
:1018B00086E7530099186069C900411802938B6844
:1018C000C9689B46B94200DD7AE702D1B34200D92C
:1018D00076E708239C46A444059565462281A446E4
:1018E000029B2C0006E053009918C90041188D682E
:1018F000C968AB469B18DB00C318B94206DC00D1AF
:10190000B3E01C000023E25E002AECDA2300644608
:101910009C4653461A806346059D1D80A3881BB2D2
:10192000002B00DA51E72269EFF3108172B61368D9
:10193000002BFCD0BFF35F8F0123A7885B42A380FD
:101940003FB22369BFF35F8F00221A6081F31088D2
:10195000002F00DA39E72300083322009A4666692F
:101960007B00DB19DB00F318996850468C4608248D
:10197000115FDD68002910DB029306E0AB4244D022
:101980000023E15E2000002906DB4C006418E4001F
:101990003419E368AB42F1DD029B078000201F5E33
:1019A0001980002FDCDA1400A379002B00D110E796
:1019B0000023A37126000823E15E08364B1C00D1EA
:1019C0002CE70800A246656902E03E004B1C1AD0D5
:1019D0004B005B18DB00EF180A008C46E95E7B8841
:1019E0001BB2002BF1DA01235B42DC17BB60FC6009
:1019F000824205D0534631801B893B8053461A8171
:101A000060464B1CE4D15446E5E6A3686345B7D96C
:101A1000C2E76B1C00D0EAE6F8E65B4658461B6955
:101A2000984700281BD153461B8822692381EFF376
:101A3000108372B611680029FCD0BFF35F8F514646
:101A400062880A8022696580BFF35F8F0021116080
:101A500083F31088B4E6864200D8F8E6B0E65B4629
:101A60001A685B680092019307E7B34500D848E71E
:101A70004CE7C046442300203C7005408517001009
:101A80000040054070B52E4C2569002D04D00A2178
:101A90002C48FFF709FE70BD2B4E0321300000F0EB
:101AA00063FAE660FFF70CFB284B03229C46D02329
:101AB00022701B061B6801216370254B6044A360E4
:101AC0000F23800020610220638063694942A18066
:101AD00019800231198647311D83585218315A52E4
:101AE00075325C39995218320131995218320131EC
:101AF0009952183201319952083518329D520231EB
:101B000018329952183201319952183201319952D2
:101B1000183201319952183201319952183201317B
:101B200099520C4B0C49DC6001303562FFF73EFBEB
:101B300001210320FFF702FB084B1D60A7E7C04609
:101B4000EC0F0020682300200040054040000034D6
:101B5000FFFF100044230020851700103860054067
:101B600000487047EC0F0020F8B51F0008AB1B7849
:101B700004001600002B08D100F008FA32003B00E8
:101B8000121A8B41002B00DA52E02269EFF3108029
:101B900072B61368002BFCD0BFF35F8F0223E15EA7
:101BA00063694A005218D2009B182269002936DB6B
:101BB0001D886580BFF35F8F0025156080F3108856
:101BC000069A9E60DF601A61079A5A615A8801324C
:101BD0005204520C101C002A1FD082B258800804F4
:101BE00010432669EFF3108772B63268002AFCD0E2
:101BF000BFF35F8FA2881A80A1802369BFF35F8F34
:101C000000221A6087F310880A4923788C46013233
:101C10009A40E36863441A60F8BD0120DDE7BFF332
:101C20005F8F0023136080F3108801204042F3E7A8
:101C30000020F1E73C20000070B501000469EFF3DB
:101C4000108C72B620680028FCD0BFF35F8F022092
:101C50000D5E4C6968004019C00024180869002D09
:101C600036DB26884E80BFF35F8F002606608CF33C
:101C70001088E36063880498013320615B04059851
:101C80005B0CA26060611A1C002B1FD093B2280469
:101C9000628018430A69EFF3108C72B61368002B48
:101CA000FCD0BFF35F8F8B8823808D800B69BFF3DF
:101CB0005F8F00221A608CF310880B7801329A40F3
:101CC000CB6808498C4663441A6070BD0122DDE789
:101CD000BFF35F8F002303608CF310880120404224
:101CE000F3E7C0463C20000010B543890A14934234
:101CF0001ADD53009B184269DB00D3180469EFF327
:101D0000108C72B62268002AFCD0BFF35F8F5A880D
:101D1000090494B2090C8A4208D00369BFF35F8FAB
:101D200000221A608CF31088002010BD802212025D
:101D300014435C80012302698371BFF35F8F00212C
:101D400011608CF31088044902788C469340C26875
:101D5000012062441360E8E73C20000040787047AF
:101D6000F0B5C64600B582B0040000F00FF9FA22C3
:101D700006000F00200000230021920000F0AAFCC2
:101D80008019794104000D1E02DA01242E4D6442AF
:101D900006267642F71736196F41AF4214D811D094
:101DA00000F0F4F832003B00121A8B41002B15DCD6
:101DB000002B46D02000290000F0F2F802B080BCD1
:101DC000B846F0BDA642EBD90026002700F0DEF8A9
:101DD00032003B00121A8B41002BE9DD00F0D6F8EF
:101DE00032003B00121A8B41002B0ADB00230193C7
:101DF000164B3200009316483B00FFF71DFF0130E1
:101E0000D8D000233900B0469C46124A1248536A83
:101E1000994204D8966A4645CCD29942CAD10668FE
:101E2000EFF3108772B63368002BFCD0BFF35F8FDF
:101E30000368BFF35F8F66461E6087F3108820BF7C
:101E4000E5E7002AB6D0C9E7FFFFFF7F551700106E
:101E5000EC0F00200040054068230020F0B55746F5
:101E60004E46DE464546E0B506000F0085B0EFF36E
:101E7000058399468B46002B12D0384900204B6AC7
:101E8000BB4206D38A6ADB1B591E8B41B2424041DA
:101E9000184305B0F0BCBB46B246A946A046F0BD0B
:101EA0002F4B9A46DB68984653461B78404603936F
:101EB00000F064F84246039B040004339B009B58E7
:101EC0000D001B1A39003000001BA941894510DCA8
:101ED0000DD020BF214A0020536A5B45D9D3926AB6
:101EE000DB1B591E8B41B24240411843D1E783426C
:101EF000EFD900F04BF832003B00121A8B41002B57
:101F00001ADB00230193174B3200009350463B002D
:101F1000FFF792FE011E0FDD104B5A6A5A451BD384
:101F20009B6AB34216D35046FFF7DEFE0B4A0020F1
:101F3000536A5B45ADD3D2E7084A0020536A5B453C
:101F4000A7D30020926ADB1BB24240415A1E934144
:101F500018439EE75A45E6D120BFE4E7004005401C
:101F6000EC0F00205517001010B5024A0248FFF789
:101F700041F810BD54570010B41E00200300416A00
:101F80000A00986A596A8A42FAD17047034B596A23
:101F90000A00986A596A9142FAD170470040054098
:101FA000064A536A9942FCD807D1044B02E05A6AA8
:101FB000914202D19A6A9042F9D870470040054098
:101FC000F8B5DE464E4657464546E0B58B46050019
:101FD0000A991800160000F0EFFA0A9B6C001F0225
:101FE000324B64199C46A4006444636881469F4256
:101FF00000D967602B1FDBB29846012B30D9C02374
:1020000080229B01E31812011A60294BAD00595937
:102010009A4600291BD17301E026226853401E40D6
:10202000802342465B01E3181E60012A30D98023D9
:1020300080229B01E31812011A6053464A466760EA
:102040005A51F0BCBB46B246A946A046F8BD5869F5
:1020500000F0B2FA013043001B18033BFDD2DAE76F
:102060005B46012BCBD1C02303229B01E3181A60EE
:10207000023AA3681A42FCD07301E0262268AD0040
:1020800053401E4080230A4A5B019246E3181E60BB
:102090005A462168514003220A401A6001225B46D9
:1020A0009A40A3681A42FCD0C1E7C04600800040B5
:1020B000B81E0020F0B546464F46D646C0B51F00B4
:1020C000344B44009C462418A4006444636888464A
:1020D0001600FF2B02D880235B006360031FDBB276
:1020E0009A46012B30D9C02380229B01E3181201AC
:1020F0001A60294B85005959994600291BD1730153
:10210000E026226853401E40802352465B01E318BC
:102110001E60012A30D9802380229B01E31812011E
:102120001A6080235B0063604B465F51E0BCBA4697
:10213000B146A846F0BD586900F03EFA01304300B0
:102140001B18033BFDD2DAE74346012BCBD1C0235A
:1021500003229B01E3181A60023AA3681A42FCD0DA
:102160007301E0262268850053401E4080230A4AFE
:102170005B019146E3181E604246216851400322EC
:102180000A401A60012342469340A2681342FCD0E1
:10219000C1E7C04600800040B81E0020014B80000F
:1021A000C0587047B81E0020F8B5040021481E0032
:1021B00017000D0000F000FA0100380000F0FCF9F3
:1021C000069B36041B031E432368002B20DB1A4B9F
:1021D0001A49E3185A1E93418022920194465B42A9
:1021E0001B0B174A1B0363441360164A13601F003E
:1021F0000A689743FBD1144B2560E2182123A060A5
:1022000013602368002BFCDA0823E6601360F8BD36
:102210003F2322681340AB42D9D1A3681B051B0D95
:102220008342D4D1EE22E368D2021340B342CED12E
:10223000EDE7C046001BB7000040FDBF08C00040EE
:1022400000E0004000F000400430000010B58024A1
:102250001C4BE4051C6000281AD001231A4C1843BB
:102260001A4BDC611A4C44401C625962986280210E
:10227000144BC9051960174817490860E021C904C3
:102280001960002A07D18022144B12061A6010BD73
:102290000E4BD861EBE753019B1A9B009A188023E1
:1022A00012015B049A4209D213000D490B60074BDF
:1022B0005A608022094BD2051A60E8E7094B1A00E0
:1022C000F3E7C04600B00540D3C007B0008005402A
:1022D0002D3FF84FFCFF01000820014000A0054001
:1022E00018230020FFFFFF008023024A9B000B43BE
:1022F000D362704700800540002310B50100988A22
:102300001B8B984710BDC046162310B501001888D6
:1023100002331B88984710BDF8B54746CE4680B5B6
:102320000F1E18D0142399460433040000250126FB
:1023300098464B461888434621681B88984701C435
:10234000431E984101350640AF42F2D13000C0BC77
:10235000B946B046F8BD0126F8E7C046002370B57F
:1023600004000D00988A05491B8B98470300002044
:10237000002C01DB0130A0402900984755420000A5
:10238000AA23064A1B0113608D235B00D360044916
:10239000044B19605368002BFCDA70470040024080
:1023A00000B0FA00006002407047C04610B5014816
:1023B000FEF708FE7857001070B5074D074EB5427E
:1023C00009D20024013E761BB60808CD98472300A9
:1023D0000134B342F9D170BDD05500100C56001035
:1023E000054B064A06491A60064A074B1A60100058
:1023F0000B689843FBD1704700E00040BFCDFBFE67
:1024000008C00040FE7F3C0000F00040044BDB6C45
:10241000002B03D18022034BD2021A607047C046C2
:10242000000011504C201150044A054B1A60054A17
:102430001368DB018033FBD17047C046FFFFFF010B
:1024400000F0004008C000404022034B9A675A67E2
:102450001A67DA667047C04600F0014010B5FEF713
:102460004DFE10BD70B5044D044CA968C02220007B
:1024700000F0A0F9AC6070BD00ED00E000000020AD
:10248000002310B5294C82B0A367FFF779FF012222
:10249000274B1A60636C012BFCD10322254B1A6079
:1024A000224A936B012BFCD1013300930121224A74
:1024B00022480433FFF778FE052301210093204AC8
:1024C0002048FFF771FE0022022104201E4BFFF777
:1024D000F1FD0022012105201C4BFFF7EBFD00223E
:1024E000002107201A4BFFF7E5FD002200210820FC
:1024F000174BFFF7DFFD8023DB0000930022002154
:102500000920134BFFF75CFD0022104B0021062031
:10251000FFF7D0FD0420FFF741FE0E4900F04CF814
:1025200001000020FFF7E0FE02B010BD0080004077
:102530003CB0004030B00040002F6859008002409D
:10254000008C864700C00240001BB700405973074B
:10255000006CDC0240420F0001480421014B184787
:102560001010002019230010124A936F9B0815D2F7
:102570009066D166002905D0FFE7FFE7FFE7516FBE
:10258000106F704704B580210906C217514000281A
:1025900000D0C84302F0DCFF002104BDF0B5146E8A
:1025A000556E576F166FFFF7E3FF14665566576752
:1025B0001667F0BD000000D0114A936F9B0813D23C
:1025C00010665166002905D0FFE7FFE7FFE7516F6E
:1025D000106F704704B5002801D00020C04302F0FE
:1025E000B7FF002104BDC046F0B5146E556E576F9D
:1025F000166FFFF7E5FF1466556657671667F0BD5F
:10260000000000D0132370B51D78012D19D014DD02
:102610001F48FFF779FE06001E48FFF775FE1E4CA7
:1026200080223100200000F0C5F8022D2DD01B487B
:10263000FFF762FE1A4B186070BD1A4B164CA3646C
:10264000F5E7184B144C23606360A360E3602361DB
:102650006361A361E36123626362A362E362236354
:102660006363A363E36323646364A364E364236534
:102670006365A365E36523666366A366E366236714
:102680006367A367E367A364D1E7064BA364CEE760
:102690005344000053460000081200204C33000051
:1026A00064230020A926001007B5604601880A0AA5
:1026B0000230DF2AFAD1C9B2820804D302884088E6
:1026C0000004104300E00068014A5050039007BD29
:1026D0000812002051434343C9188C46110C83B2A1
:1026E0004B4310B4040C614392B280B25043624336
:1026F0001C041B0C001910BC59411304120CC01807
:102700005141614470470000132310B512481C78F2
:10271000FFF7FAFD0100012C0AD003DD80220F48EB
:1027200000F048F80E48FFF7E7FD0E4B186010BDAB
:102730000A4C5422200000F03DF80B4B6365A36562
:10274000E36523666366A366E36623676367A3673F
:10275000E3672362E361E5E75346000008130020C6
:102760004C330000642300206D27001007B560463D
:1027700001880A0A0230DF2AFAD1C9B2820804D3DA
:10278000028840880004104300E00068014A50506D
:10279000039007BD0813002001480421014B18478E
:1027A0002010002019230010014B1B68184700005F
:1027B00020100020014B5B6818470000201000200B
:1027C00010B5002800D110BD00F030F9FBE7C0467D
:1027D00010B5094A0300146884B0002C08D0012207
:1027E00000910648524203A9A047012004B010BD41
:1027F00000F066F90020F9E714230020C12700103B
:1028000000BEFDE710B5FFF7FBFFC04670B5FFF750
:10281000D3FD074D074EB54209D20024013E761B79
:10282000B60808CD984723000134B342F9D170BDF2
:102830000C56001014560010030010B508001100CB
:102840001B68984710BDC046F0B5C64600B5437D2D
:1028500007000C001600002B46D0002A17DD0B786D
:102860000A2B24D000239846012E13D001252900DD
:10287000635C01350A2B26D0B542F8D1464509DC08
:10288000A419013C23780D3B5A4253413B7580BC4F
:10289000B846F0BD4346E018A419F11A013C3B6864
:1028A000984723780D3B5A4253413B75EFE7037D30
:1028B000002BD7D102210F483B689847012EDFD06B
:1028C00001239846D2E7631E5B5C0D2BD4D088456C
:1028D00004DA4346C91AE0183B68984702210548C4
:1028E0003B68A8469847C7E703681100200098474F
:1028F000CDE7C04670610010F0B54546DE464E4655
:102900005746E0B583B091461C0080460D00FFF7A6
:102910003DFB0023304A12184B41002B02DA012202
:102920002E4B52422E4908008A4602F039FE07001B
:102930006B1C03D1404602F0C3FD0500002C27D0DC
:10294000284E294B1C68002C18D04B46002B21D157
:10295000264B994602E02469002C0FD02368002BF7
:10296000F9D04B461B68002B01D09C42F3D12000CC
:102970002A004146B0472469002CEFD1002F26D110
:10298000280003B0F0BCBB46B246A946A046F0BD45
:10299000174ED6E7154B99460A239B4602E0246959
:1029A000002CEBD02368002BF9D04B461B68002B82
:1029B00001D0A342F3D12A0041462000B0476B4624
:1029C0005A462000DA71D91D0122B047E7E7504688
:1029D00002F0AEFDD4E7C04640420F00FFFFFF7F8C
:1029E0007810002049280010081F0020101F002028
:1029F000392800100A4A1368002B05D10CE01A0090
:102A00001B691032002B07D08342F8D1002902D174
:102A100018691060196170470029FCD01060FAE74E
:102A2000081F002010B500F07FFA10BDF0B5CE46AB
:102A3000474680B583B06B460600DD1D2870FFF762
:102A4000A5FA0023194A12184B41002B02DA012281
:102A5000174B524217490800884602F0A1FD164B59
:102A600081461C68002C14D0144F02E02469002C0D
:102A70000FD02368002BF9D03B68002B01D09C427B
:102A8000F4D1200001222900FFF7DEFE2469002C8A
:102A9000EFD14B46002B05D1300003B0C0BCB94686
:102AA000B046F0BD404602F043FDF5E740420F005E
:102AB000FFFFFF7F78100020081F0020101F00205C
:102AC00070B5040002F0FCFC0123010005000122A6
:102AD0002000FFF711FF084B1C68002C06D063682C
:102AE000002B05D098472469002CF8D1280070BD30
:102AF0002469002CF3D1F9E7081F00207047C04675
:102B00000022014B1A7070478A2300204B79002065
:102B1000FF2B0BD18B79002B08D1CB79012B05D161
:102B2000082A03D9024B8A7809301A707047C046C8
:102B30008A2300200120704710B5012913D11249C2
:102B40005379107909781B0203430020994200D081
:102B500010BD5378012B08D0022BF9D1642200213B
:102B60000020FFF773FB0120F2E7D37891781B0276
:102B70001943480ADB0501D4012040427F238A051E
:102B8000D20F1940FFF7EAFB8A2300200048704764
:102B90003C62001070B5050014000120012909D124
:102BA00053780020012B05D1637912791B0213435E
:102BB000072B00D070BD21002800024A9F3301F08E
:102BC00055FAF7E79461001001230370004870473D
:102BD000746100104B780A781B0213438A7810B591
:102BE00012041A43CB781B0613439622D200934259
:102BF00000D010BD0022012011004042FFF7AEFBC3
:102C0000024B1860024B19607047C046A81E002096
:102C1000AC1E002010B5024B1878FEF7ADFA10BDBF
:102C20008B230020154B70B51A68002A22D0EFF3D1
:102C3000108172B610680028FCD0BFF35F8F0020AF
:102C40000F4A596010701B68BFF35F8F186081F3E3
:102C50001088002400250B4E3078FEF781FA0028FA
:102C600004D1002400252900200070BD3078FEF733
:102C700083FAF8E7FA240025A400ECE73C230020BF
:102C80008C2300208B23002070B5040000200E0050
:102C900001F00AFB002834D0002001F01BFB0028C3
:102CA0002FD0FFF773F90023174A12184B41002B5E
:102CB00016DB164D280002F073FC002821D00020FE
:102CC00001F0F2FA00280FD101200021404200F06B
:102CD00001FD03246442280002F02AFC200070BD9C
:102CE00001220B4B5242E4E7002001F0F3FA0028E6
:102CF000EAD021003200002001F0F6FA041EEAD1E9
:102D0000E7E703246442E9E740420F006C23002018
:102D1000FFFFFF7F10B5FFF739F900230D4A1218A6
:102D20004B41002B02DA01220B4B52420B4C20008C
:102D300002F036FC00280CD001200021404200F0B7
:102D4000C9FC002001F014FB0028F5D1200002F09E
:102D5000EFFB10BD40420F00FFFFFF7F6C23002000
:102D6000F8B5DE46574680B505000C00FFF70EF9B2
:102D70000023364A12184B41002B02DA0122344B51
:102D80005242344908008A4602F00AFC002803D166
:102D9000C0BCBB46B246F8BD002001F085FA002851
:102DA0004AD00026002C43DD2B4B9B4614E0A9198A
:102DB000002001F017FB070001200021404200F035
:102DC00089FC002001F0D4FAFFF7E0F8224BF61955
:102DD00018605960B4422BDD002001F023FBA71BD3
:102DE0000200B84200DD3A00002AE0D101200021B3
:102DF000404200F06FFC002001F0BAFA002001F020
:102E000053FA002814D0002001F00CFB0028E1D177
:102E1000FFF7BCF85B460F001A685B680021844628
:102E20000E4812184B419F4202D8D3D19445D1D9B4
:102E3000504602F07DFBABE700200021064B1860F6
:102E40005960504602F074FBA2E7C04640420F00B2
:102E5000FFFFFF7F6C2300200012002020A107004D
:102E600030B52A4C85B00021200002F079FB002803
:102E70001CD1274B1A68002A16D0EFF3108172B6C6
:102E800010680028FCD0BFF35F8F012421485960EF
:102E900002781B68D2B20470BFF35F8F0020186005
:102EA00081F31088002A17D005B030BD0120002121
:102EB000404200F00FFC002001F00CFA0500200059
:102EC00002F036FB002DEFD0134B1B68002BEBD02C
:102ED000124A10689847E7E7FEF742FE0400FFF742
:102EE00055F8FA220023920012184B41002B02DA07
:102EF00001220B4B5242012102910021019109490B
:102F000020000091FEF730FECEE7C0466C23002083
:102F10003C2300208C230020A81E0020AC1E002093
:102F2000FFFFFF7F252C0010D02310B51B0684B0B7
:102F30001C68FEF715FEFEF711FFA04202D000202C
:102F400004B010BD294B002100201B7801F05EFD6C
:102F500027480368002B45D00120FEF78FFBFF2395
:102F6000244C254920701840FEF720F920780121D3
:102F7000FEF7E4F80520FEF707F9002824D108221F
:102F800000211E48FFF710FCFEF7EAFD0400FEF7E3
:102F9000FDFFFA220023920012184B41002B02DAA7
:102FA0000122174B52420121029100210191154942
:102FB00020000091FEF7D8FD0028C0DB1248012157
:102FC000FFF718FD0120BBE70120FEF785F80B4B4A
:102FD00001001800FEF7B4FB002205200B49FEF7A4
:102FE0000FF9EBE7FEF790FBB6E7C046F46300107D
:102FF0006C2300208B230020612E00103C23002036
:10300000FFFFFF7F252C001030100020152C001032
:1030100000487047D8620010004870478462001072
:1030200010B5040017480378002B20D0002C06D1DF
:10303000154B16484380063BFF3B038010BD052C13
:103040001DD8134BA400E05812490123013804E0B5
:1030500001330A800231142B0DD0C25C002AF7D153
:10306000C022DBB25B00920008481343E5E7112160
:1030700000F01AF8DAE7CA2304489B00DDE70020D5
:10308000DCE7C0467423002009040000E01E002095
:103090006C620010E21E002010B5024800F0D8F863
:1030A00010BDC0465C23002030B54B1E012900D165
:1030B000A7E0664A11780D092C0030349F2900D909
:1030C000A2E00470012B00D1BEE00F211478214052
:1030D0000C003034092900D998E04470022B00D14B
:1030E000B2E054782509290030319F2C00D990E0B6
:1030F0008170032B00D1A7E00F2121400C00303458
:10310000092900D987E0C470042B00D19CE0947891
:103110002509290030319F2C00D97FE00171052B52
:1031200000D191E00F2121400C003034092900D951
:1031300076E04471062B00D186E0D4782509290079
:1031400030319F2C00D96EE08171072B00D17BE0DC
:103150000F2121400C003034092966D8C471082B96
:1031600000D171E014792509290030319F2C5FD8F6
:103170000172092B68D00F2121400C00303409293D
:1031800058D844720A2B5FD0547925092900303170
:103190009F2C52D881720B2B56D00F2121400C004E
:1031A000303409294BD8C4720C2B4DD094792509A1
:1031B000290030319F2C00D9073101730D2B43D0EA
:1031C0000F2121400C003034092901D937310C007E
:1031D00044730E2B38D0D1790C09220030329F294C
:1031E00000D9073282730F2B2ED00F220A40110014
:1031F0003731092A01D830321100C173102B23D086
:1032000010300023037030BD07345AE737310C000B
:1032100063E707316CE737310C0074E707317DE76E
:1032200037310C0085E707318EE737310C0095E721
:1032300007319DE737310C00A3E70731AAE73731A3
:103240000C00C4720C2BB1D1C018DAE75C2300204B
:1032500010B588B004000D2200216846FFF7A4FADB
:103260000D22002104A8FFF79FFA4B236A46684607
:10327000137004A90D2202F053F915210822200031
:103280006944FFF797FA08B010BDC046F8B500F0E2
:1032900047F90C23194DFF22AB6705201849FDF7AC
:1032A000AFFF184C402200212000FFF77DFA402795
:1032B000002301262121144A66702783A26013602F
:1032C00063545F31618445396354104A1049636027
:1032D000E2602787A1620B606362E26202F058F944
:1032E00080239B052E64EB6490230A4A0120EA5058
:1032F0008022094B5202DA64F8BDC046000011502A
:10330000F9040020141F0020840010500001105008
:103310008000105010D001000020115010B5012184
:103320000520FDF70BFF10BD10B50022002102485B
:1033300000F016F910BDC046341F0020044B197070
:10334000002904D080219023024A8902D15070477D
:1033500086230020002011500B785B0602D14B78A9
:10336000052B00D070478A78014B1A60FAE7C046F7
:1033700000001150F0B5C646C87800B58007830F2D
:103380001800012B60D08F780A794B797F21394062
:10339000FC091B024E001343334D32195201AA1887
:1033A000977001276740577000275B055B0DD7704A
:1033B0001383D076B846CA00012C32D02B4FBC46BE
:1033C0008F016244BC46AC446746BA60474617600A
:1033D000002932D0264AC9009046624641445160D5
:1033E0003F223F339343022837D0224937190A68D6
:1033F0007F01D3180B602049EF19FA608B422ED859
:1034000036197601AD19EB7E1C499B064A401343E1
:103410008022120613436A681360012080BCB846FC
:10342000F0BD174FBC468F016244BC46AC446746B2
:10343000BA6247461760002908D1002364012C199D
:103440006360104BE360E8E70020E7E70B4AC90040
:103450009046624641445162C2E75B00C5E7FEF711
:10346000A5FFFA68CCE7C046141F00208400105066
:103470000400105020230020FF0F105000001050B7
:10348000800010500001105010B502F081F810BDFE
:1034900010B57F200C0020404000E4091100001905
:1034A0001A00034B4001C01800F05AF8012010BD6B
:1034B000141F00207F23180000B5084083B00B4282
:1034C00004D14B424B41084A013393668022C9091B
:1034D0004000064B401840010021C018120102F0C4
:1034E0006FF803B000BDC04600201150141F00202B
:1034F0007F22130010B50B400A4200D110BDC9094C
:103500005B005B1804485B01C018002300220349DC
:10351000C37002F055F8F1E7141F0020FFF7FFFF1A
:1035200080220A4B520410B51A60094B09491A60EF
:1035300010000B689843FBD18022002152010648FD
:10354000FFF732F90922054B5A6710BD00E0004031
:1035500000F0004008C00040000010500000115072
:10356000002310B5C3820133828283760161040097
:1035700001F0E6FF002804D080219023074A890249
:10358000D150200001F0F4FF002802D0012323775E
:1035900010BD200002F00CF8FAE7C04600201150E0
:1035A0007047C0467047C0460020704700207047F3
:1035B0007047C0467047C0467047C0467047C04617
:1035C000024B5878431E9841C0B27047B81500208E
:1035D000024B18784007C00F7047C046B81500204E
:1035E000F0B5D6464F464646C0B52F4B07009A4623
:1035F0001B780E00FF2B50D1002941D0002154220E
:103600002A48FFF7D1F80022294C2A4B20001A70D3
:10361000FEF77AF8284B1C60284C2000143CFEF77B
:1036200081F8200001F0FAFD254B264D1C60264B49
:10363000002B04D02800FFF7C7FA244B1860244958
:10364000002489462149002388462A7810E0434611
:103650001B6862019B18002B12D05B68002B0FD0F7
:1036600098472A780134E4B2511C2300A14209DBB7
:10367000A242ECD89B1A5B014B445B68002BEFD154
:1036800000200BE05346310038001F70FFF7FEFDAD
:103690000028F5D03800FFF741FE0120E0BCBA4613
:1036A000B146A846F0BDC04664100020B815002001
:1036B000B0150020872300200C1600205C1000208D
:1036C0001016002085230020C92B001008140020AC
:1036D00094630010F0B5DE4657464E464546E0B5C9
:1036E000C84B91B002931B78FF2B00D13EE1C64B33
:1036F000C64E9B465F46C64B0DAC0193C54B00932F
:1037000035686A69EFF3108172B61368002BFCD03C
:10371000BFF35F8FA9612800210001F0AFFB6A6948
:10372000AB69BFF35F8F0021116083F3108800281D
:1037300000D11BE16378082BE2D89B00FB589F4621
:103740006368002BDCD0A0689847D9E77F222179F5
:10375000AF4D0A405300EB189846C80980444046D4
:103760000123303005799D430571057903339D436D
:103770000571002A00D100E14346A74A1B7D12785B
:10378000934200D3EFE0A54A5B011568ED18002DC8
:1037900000D1EBE0A36862792078AD69A847AFE774
:1037A0009F4A1378002B00D1E0E01378013BDBB295
:1037B00013701378002BA3D10122954D01212B7892
:1037C000042013432B703423EA5C8A43EA54EA5CF6
:1037D0008243EA540133EA5C8A43EA54EA5C824356
:1037E000EA54237800209B4600F09EFC6022237957
:1037F0001A40602A00D1EFE0402A00D1F5E0DB0654
:10380000DB0E012B00D113E1022B00D1C7E0002B0E
:1038100000D0E1E0202A00D11CE2002A00D0DBE049
:103820006379092B00D9D7E07E4A9B00D3589F4685
:10383000774D2B78DB0700D462E7FFF7BFFE5FE729
:10384000019BDB78DB0700D45AE76068FFF7AAFE2C
:1038500056E76F4D2B78DB0700D451E72878000737
:10386000C00FFFF7A9FE4BE723786A4999468B46BC
:10387000694B6A4998468A4639001A7847460023B8
:10388000B04600254E46894610E053461B686A0143
:103890009B18002B00D176E0DB68300098473A781F
:1038A0000135EDB2511C2B008D4244DC9542ECD326
:1038B0009B1A5B015B44EFE7237858499946564BC6
:1038C0008A4698463100BB464E461A7800250023AA
:1038D000474689460FE053461B686A019B18002B38
:1038E00055D0DB68300098473A780135EDB2511C6D
:1038F0002B008D4207DC9542EDD39B1A009A5B01A9
:1039000094466344EDE7019D542200212800FEF710
:103910004BFF1022FF214448FEF746FF28002022DB
:10392000FF2114304E465F46FEF73EFF00F0F2FBEB
:10393000FFF740FEE4E6364D542200212800FEF752
:1039400033FF1022FF21281DFEF72EFF2800202222
:10395000FF21143046464F46FEF726FF00F0DAFB03
:103960002379AB70CCE6501C984213DA11B0F0BC4E
:10397000BB46B246A946A046F0BDA368627920784E
:1039800000F0E6FBBCE646464F46214DE6E74E46D4
:103990005F46CBE71F4D9B1A5B015D19FAE670236A
:1039A000217A0B4218D1C80982460F330B405B00C5
:1039B00098461948EB1853441B7D0078994683427A
:1039C00066D216485B01006881469944002A00D1FE
:1039D0005FE14B46002B68D120780021FFF76AFD9C
:1039E00080212078FFF766FD8AE6104800F09CFBF6
:1039F000012158460EAAFFF7CDF8002800D07FE637
:103A0000EAE7C04664100020EC62001010160020A7
:103A1000B8150020946300108523002008140020AE
:103A20008723002010630010BC150020952B001088
:103A3000237A0F2BD0D8CF4AEB181B791578AB42DD
:103A40003ED3691C9942C7DB5D1BCB4B6D01ED1862
:103A5000686900F069FB012158466B690EAA984716
:103A6000002800D04CE66022150023791D401A4240
:103A7000B2D163790A3B012BAED800F055FB6379D4
:103A80000A2B00D199E158460EA900F0D9FA37E681
:103A9000431C4B4500DAF7E04B461B1A5B01994685
:103AA000B5488144002A00D1F3E04B46586900F044
:103AB0003BFB4B46012158465B690EAA98479CE7A1
:103AC000AE4A5B011568ED18002DC1D184E7A379DA
:103AD00099466B789945D6D06B78002B00D033E1AE
:103AE0004B466B70002B00D12BE148460138C0B229
:103AF000FFF792FA002800D17EE143780793022B6A
:103B000000D079E10122C179B1468B1149111340EE
:103B10000A40302112015B0113432A78A8468A43E8
:103B200013432B7009239A4682445646BA46C378FB
:103B300082781B021343C31805938E4B04938E4B5C
:103B400008938E4B09938E4B0A93059BB34200D882
:103B500055E1737801220B2B03D13378F278F618F4
:103B60007378042B00D044E1059B00279B1B9BB27C
:103B70000693049B0B921D78002303931BE0099A84
:103B80007B011568ED18002D00D132E13100584657
:103B90002B69069A98478446082803D9069A8242D8
:103BA00000D313E1049B01371D78FFB26B1C039710
:103BB0009F4200DD1DE1BD42E1D8039B5D1B089BD8
:103BC0006D019C466544E1E76B780CAA02321370E4
:103BD000584601230EA900F049FA91E5E3881A0A34
:103BE000D8B20F2A00D9F7E666499300CB589F4612
:103BF0000EA800F09FFA5846A179FFF795FB022224
:103C00002B7813432B707BE5E388012B00D0E3E690
:103C100008222B78584693430EA92B7000F010FA17
:103C20006EE5022029780CAB9A1C8B068908DB0F05
:103C300001400B431380584602230EA900F016FAE8
:103C40005EE5E388012B00D0C6E608222B781343FB
:103C50002B7018E7237A0F2B00D9BDE6EB181D79DE
:103C6000444B1B789D4228D2444B6D011B685D1963
:103C7000002D00D1B0E6686900F056FA01215846DF
:103C80006B690EAA9847B8E6002A00D0A4E6002384
:103C9000994662790220130003928343012B15D0C9
:103CA000002A00D098E62B004344534430331B795C
:103CB0000CAA9B07DB0F0232BCE75A1CAA4200DAAF
:103CC0008AE6ED1A2C4B6D01ED18D4E7E388002B42
:103CD00012D1029B1878039B012B23D0FFF7EAFB3C
:103CE00043460221EB18534430331A790A43012129
:103CF0001A711A790A431A714B46002B00D1FFE45E
:103D0000586900F011FA4B4601215B690EAA58462A
:103D10009847002000F008FA3523EB5CDB0700D55C
:103D2000EEE4B0E6FFF7E4FB43460221EB18534410
:103D300030331A798A431A711A7903998A431A71AE
:103D4000DAE7FFF737FC9EE600215846FFF7F6FA60
:103D50005846FFF799FBAB78074903930491054B4D
:103D6000064998461A780591002329001D008A46C5
:103D70001BE0C04685230020946300100814002037
:103D8000CC15002038630010059B6A011B689B1846
:103D9000002B4DD0DB685846984743461A780135CA
:103DA000EDB2511C2B008D422EDC9542ECD39B1AB8
:103DB000049A5B0194466344ECE70CAB9A1C5846AA
:103DC00001230EA9157000F051F999E40B9A012A0C
:103DD0004FD0002A3CD00023B07804E00133DBB29E
:103DE0000F71934234D2C118C9B241440D79FF2DED
:103DF000F4D04E464546574600236B70ECE54E46E0
:103E00005746FFF7D5FB3EE65546542200212800D1
:103E1000FEF7CAFC1022FF21281DFEF7C5FC280072
:103E20002022FF211430FEF7BFFC039BAB7057E646
:103E30005546FAE7FEF7AAFE021E00D1CCE5D3787C
:103E400091781B020B4358460EA900F00FF9D4E5F8
:103E500065463B002A0031000A9800F07FFEAC4620
:103E6000049B039A1B7866440133934200DB6CE6A3
:103E7000BFE7174B29699942ADD1079AABE7FFF726
:103E800093FB021E00D1A7E5584613780EA900F057
:103E9000EDF8B2E52189FFF7C3F8021EF4D19BE5E6
:103EA000022A0FD0FFF782FB021EC8D194E5FFF76C
:103EB000AFF8021E00D18FE5122358460EA900F07C
:103EC000D5F89AE5FFF7A8F8021EB8D184E5C046F8
:103ED00025450010F8B557464E46DE4645460C00CF
:103EE000E0B516001F00002A3CD0702398461E4BF8
:103EF00000259B461D4B9A461AE05B461B78200026
:103F000099465346997800F0EBFD00281CD021001B
:103F10004846FFF72FFA002816D0A378DA09012ABD
:103F200019D00A9A013513702378E418B54219DACA
:103F30006378052B08D1E3789B079B0FBB4203D125
:103F40004246A3781A42D8D00020F0BCBB46B24605
:103F5000A946A046F8BD0B9A013513702378E418E2
:103F6000B542E5DB0120F0E764100020B815002021
:103F7000702270B58B780C001A4201D0002070BD01
:103F8000064B20001D78064B997800F0A9FD00280B
:103F9000F4D021002800FFF7EDF9F0E764100020CD
:103FA000B81500200B007F2010B51840DB09343312
:103FB0004000044AC018044B1168C01800F04CFDC2
:103FC00010BDC0460C160020B81500200B007F2045
:103FD00010B51840DB0934334000044AC018044BC4
:103FE0001168C01800F060FD10BDC0460C1600201E
:103FF000B815002070B57F240F480C4064000419E8
:10400000CD09641930342079C00701D5002070BD76
:10401000012625790948354300782571FFF738FADC
:104020000028F4D1012223799343237123790332A9
:1040300093432371EAE7C046B815002064100020BE
:1040400070B5094C0600082220000D00FEF7B2FBF7
:1040500000238021E360A3602B7830009943002285
:104060000023FFF7C7FF70BD98150020F8B5CE46B6
:1040700047469046254E80B58146082230000D0007
:104080001F00FEF797FB4346B3600023F381EC79F2
:10409000AB7924021C43231CBC4200D93B1C9FB2B9
:1040A000B381002C0DD0002F17D04246002A2BD010
:1040B000402F1BD89FB233787F2B1CD80021144A85
:1040C0000FE080212B780022994348460023FFF718
:1040D00091FFC0BCB946B046F8BD7F2300223178BD
:1040E00099433B004846FFF785FFF2E740239FB224
:1040F00033787F2BE2D9064C3A0041462000FEF788
:1041000059FB80212200ECE70020E2E7981500200F
:104110005815002010B5142200210248FEF744FB78
:1041200010BDC04698150020014B18617047C0466D
:104130009815002010B5054C010008222000FEF75C
:1041400039FB0023A360E36010BDC0469815002032
:1041500070B5384C1D0023780600DA09C9098A4277
:1041600010D00020002D00D070BD21003000FFF7DE
:10417000F3F82369002B03D0220003213000984775
:104180000120F1E77F2B06D8A068002834D02A0050
:104190002949FEF70FFBE289A1685219E38892B220
:1041A0004919E281A160934214D03F2D12D9A3890D
:1041B000981A051C80B240282AD82078ADB27F28F2
:1041C00028D800219A4232D01B4A2B003000FFF73A
:1041D00011FFC9E72369002B05D02200022130001E
:1041E000984700280AD08021237800229943300084
:1041F0000023FFF7FFFEB7E70020B5E700213000FE
:10420000FFF758F930008021FFF754F90120ABE7A0
:104210004025D2E79A4207D0074C2A002000FEF73B
:10422000C9FA80212200D0E780210022CDE70022B8
:10423000CBE7C046981500205815002070B5040043
:10424000FFF7BEF9002800D170BDFFF7C1F90028C3
:10425000FAD1C8236343124DEE18F1780029F3D048
:1042600010335D19280000F0F3FD3F28ECD9002041
:10427000F178FFF797FE0028E6D0280000F0E8FD6F
:10428000F1783F2807D9074BE201D21800204023DC
:10429000FFF7B0FED8E70020FFF798FED4E7C0464E
:1042A000901400200C14002010B50400FFF788F9CA
:1042B000002801D1002010BDFFF78AF90028F9D1AC
:1042C000C8226243024B01309B181B791840F2E769
:1042D00090140020C82310B543430248181800F07A
:1042E00099FD10BDA0140020F8B5C82480234443D4
:1042F0001C4F103405003C195B029A4200D31A4A45
:10430000200092B200F008FE0600FFF759F90028DD
:1043100001D13000F8BDFFF75BF90028F9D1C823BF
:104320006B43FF18FB78002BF3D0200000F090FDCA
:104330003F28EED90020F978FFF734FE0028E8D0B6
:10434000200000F085FDF9783F2807D9074BEA01E6
:10435000D21800204023FFF74DFEDAE70020FFF7D8
:1043600035FED6E790140020FFFF00000C1400205B
:10437000F8B50400FFF724F9002801D10020F8BDAA
:10438000FFF726F90028F9D1C82565432E00134F01
:104390002436F619300000F03DFD0028EED07F19DC
:1043A0000020B978FFF7FEFD0028E7D00C4DE401AE
:1043B000651929004022300000F0AEFDB978041ED6
:1043C00008D003002A000020FFF714FE0028D5D0F3
:1043D0002000D4E70020FFF7F9FDCFE7901400207C
:1043E0004C14002070B5C82444430C4B0500E4185D
:1043F00080235B029A4200D3094A200092B200F067
:1044000051FE0600200000F005FD3F2801D83000D5
:1044100070BD2800FFF7ACFFF9E7C046B4140020D8
:10442000FFFF0000C82310B543430248181800F0EE
:104430000FFD10BDB4140020F0B50025184C83B05A
:10444000C82200212000FEF7AFF9164B21001D7095
:10445000FF236371E1235B02A36020000823402255
:10446000A37338310095073B103000F09DFC270006
:104470000123210020002600402278310093B83724
:10448000243000F091FCC0363800FDF73DF93000D3
:10449000FDF73AF9E56127622663656303B0F0BD75
:1044A000901400208C1400200A4A116B136A002912
:1044B0000CD0002B07D00023D36153631363002378
:1044C00013620120704753631363FAE7002BF8D09F
:1044D000D161F4E79014002070B50F4C0522002143
:1044E0002000FEF761F90D4D2B78DA0707D50C4C4B
:1044F0009B070CD50121200000F0B0FE70BD20000C
:10450000103000F08BFE2B78054C9B07F2D4200076
:1045100000F084FEEEE7C046901400208C140020CA
:10452000B4140020F0B54B79060083B0022B02D101
:104530008B79022B03D00025280003B0F0BD204F5B
:10454000BB78002BF7D18B7809253B700C780C19C0
:104550006378242B07D00CE02378E4185D19637886
:10456000ADB2242B05D19542F6D90020FFF766FEA7
:10457000E2E71A00052B15D0042AF6D163790A2B3D
:10458000F3D1104B277801930133009330000223BD
:10459000E119023AFFF79EFC0028CCD00E35ED1948
:1045A000ADB2E2E721003000FFF7E2FC0028C2D004
:1045B000A3787B7023785D19E4186278ADB2DBE7ED
:1045C0009014002092140020F8B560231400127893
:1045D000050013400020202B07D1304A637927794A
:1045E00016781B023B439E4200D0F8BD6378222B15
:1045F0001AD007D8202B34D0212BF6D101293ED058
:104600000120F2E7232BF0D1012940D00329F7D173
:10461000234B002BF4D0E178A37809020020194342
:1046200000E000BF0120E0E7012930D00329E7D1F5
:1046300001252E00A378E478023924021C4314716A
:10464000264024321000714000F008FE154B002B6C
:10465000D6D06208002031002A4000E000BF0120CF
:10466000C3E701290BD00329CAD10F4B002BC7D0B8
:10467000083200201100FEF7ADFA0120B5E707234C
:1046800021002800094AFFF7F1FC0120ADE72100D5
:104690002800FFF7D5FC0120A7E7C04690140020B2
:1046A0000000000000000000D52B0010981400202E
:1046B000F0B54F464646D646C0B5364D8046EA78F8
:1046C0000C001F008A423CD0AB788B4210D00020F7
:1046D000E0BCBA46B146A846F0BD2F4B002B04D033
:1046E0002E4800F0ADFB002851D00020FFF7A6FDBA
:1046F000AB78A34201D00120EAE7294B002B02D07E
:10470000002000E000BF0020FFF732FE0028F2D1B9
:10471000244C200000F07EFB0028ECD1002FEAD0D2
:10472000BF06E8D1243C4046A178FFF73BFC0028B7
:10473000E1D0002300224046A178FFF75BFC012076
:10474000C6E79AB210239A46174EAA443100504643
:1047500000F0A8FC154B002BBFD06B79FF2BBCD011
:10476000002FBAD0F219914603E001364E45B4D07D
:104770006B7932789A42F8D1504600F061FB0028FC
:10478000F3D15346103B597900E000BFEDE700E05C
:1047900000BFAAE79014002000000000A014002031
:1047A00000000000B41400200C14002000000000E1
:1047B0009322F0B5134C85B0002120009200FDF744
:1047C000F3FF23002000802640270F4D4D33760055
:1047D000FF33293002950093002200230021039724
:1047E0000196FF3000F0D4F94035201D2834002315
:1047F00001220021039702950196009400F0C8F968
:1048000005B0F0BD54170020D416002010B5054C9B
:10481000200000F0F3F920002538FF3800F0EEF911
:10482000012010BD7C18002070B5084C0025200028
:104830003130FF30257000F0F1FC20000C3000F02A
:10484000EDFC2A23FF33E554657170BD5417002039
:10485000F8B557464546DE464E46E0B54B798046AC
:104860000F00FF2B5BD1404B99462A234946FF336B
:10487000CB5C002B53D14E79002E50D1BB783C78C5
:104880000B703B793C19002B46D098235B004B44BE
:104890009A460C234B449B46A51803E0AC423BD2FE
:1048A0002378E4186378052BF8D1AC4234D2210088
:1048B0004046FFF75DFB002831D0A3780136F6B201
:1048C000DB09012B32D0504600F0A8FC2A234946D0
:1048D000A278FF33CA54637922791B021343234A17
:1048E0005B0594465B0D942163445A4253414A460A
:1048F00002204900525C5B00824313434A465354F2
:1049000051464046083900F0E3F9002807D02378E3
:10491000E4183B79B342C5D8E01B80B200E0002028
:10492000F0BCBB46B246A946A046F8BD584600F0CA
:1049300075FC5A46A3780C3A5371637921791B02AE
:104940000B430A495B058C465B0D634459424B415E
:10495000022011795B0081430B435946002008393E
:10496000137100F081F9D2E75417002000FEFFFF19
:10497000F8B52A2506001F48FF35455D1F008D420A
:1049800015D043798B4201D00020F8BD1A4B002B83
:1049900004D039040020090C00E000BF174C30009F
:1049A000210000F061F900281DD00120EDE79A23D5
:1049B0005B00C35A002B0DD1114B002B04D00020FB
:1049C0001049BAB200E000BF30000F4900F080F992
:1049D0000120DAE796235B00C1583130BAB2FF30CC
:1049E00000F060FBE8E73A002100300000F008F931
:1049F0000120CAE7541700200000000058170020CB
:104A000000000000D41600207C18002000B5030030
:104A100083B0002910D00020012B07D80A78002A83
:104A200004D00C48C2540120012A01D003B000BDBB
:104A30001800FEF7D5FDF9E701236A46002001A919
:104A40009380FEF7CDFD0028F0D00122014B1A70B3
:104A5000ECE7C046AC150020037870B5DB07040016
:104A60000E00DD0F002B17D103785B0701D528005E
:104A700070BD01213000494200F082FD2378DB0740
:104A8000DD0F002B0AD123785B0708D4042223789A
:104A900001251343237002E00025E8E700253000DC
:104AA00000F046FDE3E7C04670B50C0001210600AA
:104AB0004942200000F064FD33785B07DD0F002BD6
:104AC00004DB200000F034FD280070BD3378DB07E4
:104AD00004D40422337893433370F2E70025F0E7DF
:104AE000437902791B021343C2785B0592075B0D81
:104AF000920F022A1DD0032A0CD00020012A08D1CF
:104B000002394A425141124A944661449942404115
:104B1000C0B2704702394A1E91410E4A49421140C3
:104B20008022D20094460020614499424041C0B2A4
:104B3000EFE7022905D0002040229A424041C0B24E
:104B4000E7E7054A981843425841C0B2E1E7C0463A
:104B5000FF03000040FCFFFF00FEFFFF8A1870B556
:104B6000914207D27F264C78052C04D00C78091985
:104B70008A42F8D870BD34008D782C406400041946
:104B8000ED0963550C7809198A42ECD8F2E7C04662
:104B9000F0B5C64600B582B0150008AA40CA0400A8
:104BA00017886A46928D012090460A0021780240BB
:104BB00081432000114321703A000093310001230A
:104BC000083000F0F1F8002E01D0002F08D10A9B28
:104BD000012063604346638002B080BCB846F0BDEC
:104BE00026001C363000FCF78FFD0023002D01D07D
:104BF000330000266361A661E9E7C04601207047E3
:104C0000F8B502240B7807001C4063425C41144B4A
:104C100064421C40134B08009C4608300D001600EF
:104C2000644400F0F7F8002807D1002E05D0344284
:104C300003D101242B781C4201D00020F8BD38009C
:104C40006978FFF7AFF90028F7D02B781C42F4D130
:104C50000023002238006978FFF7CCF9EEE7C04660
:104C600040FEFFFFFF010000F8B50D00083506000B
:104C700028000C0000F0CEF8002803D0012723788C
:104C80001F4201D00020F8BD30006178FFF78AF99B
:104C90000028F7D028006288616800F03DF9237889
:104CA00005001F4000280BD0002FEBD103006268E5
:104CB00030006178FFF79EF90028E3D02800E2E792
:104CC000002FDFD130006178FFF780F9DAE7C046C6
:104CD000F8B5CE46474680B58A8906000C000B78A9
:104CE000002A07D101251D4240D00020C0BCB94692
:104CF000B046F8BD9B0733D42A4B40259946270080
:104D00000837380000F0A4F88542EED80122237855
:104D100090461A42E9D130006178FFF743F9002844
:104D2000E3D0380000F094F8424623781A408542D8
:104D300031D8002AD9D14A46638802401D1C9342CB
:104D400000D9151CADB200226178002D00D0626838
:104D50002B003000FFF74EF90028C6D02800C5E729
:104D6000FE2380251B029946AD00C8E74978FFF76E
:104D700019F90028B9D023781D42B6D163880022E2
:104D80006178002B00D062683000FFF733F900280B
:104D9000ABD06088AAE7002AA7D130006178FFF77E
:104DA00015F9A2E7C0FF0000F0B5C64600B5040043
:104DB0006846057E8020884617001E000002824259
:104DC00026D8E068002803D00121494200F0D8FB32
:104DD0002069002803D00121494200F0D1FB43465D
:104DE000236073045B0CED031D430023E0686381C3
:104DF000A780E5802381002801D000F099FB20697D
:104E0000002801D000F094FB012080BCB846F0BD22
:104E10000020FAE710B5048941898288A3B288B2DC
:104E20008C4207D31B1A9BB2101C9A4200D9181C43
:104E300080B210BD5100091A5B189BB2F4E7C0465E
:104E400003894089181A43425841C0B27047C0468E
:104E500010B5048941898288A3B288B28C4207D3F5
:104E60001B1A9BB200209A4201D9D21A90B210BDEF
:104E70005100091A5B189BB2F4E7C04670B50400F4
:104E800000690E00002803D00121494200F078FBA0
:104E900025896089A288A9B283B2854232D3CD1A0E
:104EA000ADB2002D28D0AA4208D291422FD3891A40
:104EB0008BB263819A4203D89B1A9BB29A42FBD968
:104EC000E28821685204520C53433000C918FDF7A0
:104ED00071FC63890125591C89B2A2888B420DD9C6
:104EE00000215200891A89B220696181002801D00D
:104EF00000F01EFB280070BD618989B2520091420A
:104F0000F2DBEFE75500ED1A4D19ADB2C9E789188C
:104F10008BB26381CEE7C046F0B546464F46D646D3
:104F2000C0B50600006989469046002803D00121DB
:104F3000494200F025FB31897289B5888BB294B261
:104F4000914254D31F1BBFB2002F4AD0BD4205D29D
:104F5000AB4251D25B199CB22F0074814346B845D5
:104F60003DD89FB2A54203D8641BA4B2A542FBD989
:104F7000F28831685204520C904662432B1B9BB25C
:104F8000891842469F4225D953439BB21A0048468E
:104F90009A46FDF70FFC434648467D1B64195C4367
:104FA00031685044A2B2FDF705FC7189B588CB1970
:104FB0009BB26A00994216D99B1A9BB230697381E1
:104FC000002801D000F0B4FA3800E0BCBA46B1467F
:104FD000A846F0BD48467A43FDF7ECFBE5E73B1CED
:104FE000BFE773899BB26A009342E7DBE4E76F0097
:104FF0003F1BDF19BFB2A7E75B1B9CB2ACE7C04603
:10500000F8B50400C0680E00002803D00121494211
:1050100000F0B6FA258920896189A288ADB283B2F1
:105020008FB2884229D3DB1B9BB29A4209D8E77919
:10503000FF0906D1E068002801D000F079FA3800B5
:10504000F8BD2B0095421DD39B1A9BB29342FBD215
:10505000E28820685204520C53433100C018FDF717
:10506000A9FB6B1C9BB2A2889D4217D9002352005A
:105070009B1A9BB201272381DCE75100C91B5B18F7
:105080009BB2D2E7E28820685204520C53433100AD
:10509000C018FDF78FFB0135A288ABB252009342D6
:1050A000E8DBE5E7F0B54E465746DE464546E0B557
:1050B00089460600170083B0002A67D0C068002820
:1050C00003D00121494200F05BFA3389F2799BB2A7
:1050D00098467389B5889BB2D20940D198455ED273
:1050E0006A00D31A43449BB2AB425DD2EB1A1A1C3E
:1050F0009BB2BB4200D93A1C97B27B1B9BB2019377
:10510000F3885B045B0C9A464346DB199BB29B46D3
:105110004446A84503D3641BA4B2AC42FBD2534619
:10512000634330682D1BADB2C018BD424BD352460D
:1051300049467A43FDF73EFBB3885B00D84501D86A
:105140009B4503DB5A46D31A9BB29B465B463D0008
:105150003381F06800281AD000F0EAF917E0F288ED
:105160005204520C9246AF4220D298454DD342464B
:10517000D21A92B26900781B80B2D21901908A4289
:1051800033DA4346FB189BB29B46C1E70025280053
:1051900003B0F0BCBB46B246A946A046F0BD4246AD
:1051A000D31A9BB2AB42A1D30025D2E7002DD0D0B9
:1051B0007F1B574398465A19002392B2B94493462D
:1051C0002F000193A4E753465D43ADB22A00494640
:1051D000FDF7F0FA019B2900E21853465A43306864
:1051E00092B24944FDF7E6FAA6E75A1992B29346FD
:1051F000D21B92B2904693420CD94346591A8BB2B5
:105200009846FB189BB29B4682E76900CA1A424443
:1052100092B2B0E7914200DD7AE7EEE710B5040004
:10522000C068002803D00121494200F0A9F9206993
:10523000002803D00121494200F0A2F90023E068D0
:1052400063812381002801D000F072F920690028D1
:1052500001D000F06DF9012010BDC04670B504000A
:10526000C0680D00002803D00121494200F088F9F0
:105270002069002803D00121494200F081F97F21F3
:10528000E379ED011940E0682943E171002801D07C
:1052900000F04EF92069002801D000F049F9012002
:1052A00070BDC046F0B5DE4657464E464546904670
:1052B0000022E0B585B01E000EAB1B7807009B46B0
:1052C0000368DA6601325960DA66002E60DD027921
:1052D00059469202924601224A4052029446802246
:1052E00091465A46802403926246BB460020102114
:1052F0004746B446751EA4000192421B1600724236
:105300007241019E5242164002963E5CB04656469D
:10531000424616433200029E16431E61019E5A6B9E
:105320001142FCD04A469A5801969246002A0AD168
:10533000A84228D00022013092468445DDD1039B4B
:105340005F469B4616E05A6D012290465A6B2242F8
:10535000FCD01A6E42460196002AEBD0039B5F46B2
:105360009B465346002B15D05346DB0712D45346B9
:105370001B070FD55B463B7105B0F0BCBB46B24680
:10538000A946A046F0BD039A002AD3D19046DDE796
:105390000020EFE701204042ECE7C046F8B5DE46CA
:1053A00057464E4645468346E0B505200C00FCF7BF
:1053B000F5FE0600600821008019FDF7FDF84300A6
:1053C00098468044070005214046FDF7F5F83B1A52
:1053D0009A461E4B8146700080199C4231D81C4968
:1053E000FDF7EAF8451C5B461C680023E36622686B
:1053F00004335A400233134080225201A218136032
:105400005346E3614B462362434601204F2B03D9A9
:1054100050214046FDF7D0F8A023E050E36F39005B
:105420005D400C4B2D042D0CE3181D600123300052
:10543000E366FDF7C1F8F0BCBB46B246A946A046FC
:10544000F8BD0549FDF7B8F8451CCCE73F420F0011
:10545000809698007C10000040787D010F4A70B55E
:10546000821A531E9A410E4BD20008321A600D4B1D
:105470000D4C1A60150023689D432B1EFAD166243B
:105480000268FF340571D5661460633C8833FF3CC5
:10549000D5639563D450FFF781FF70BD7010002075
:1054A00000E0004000F0004008C0004010B582B0AD
:1054B0006C46247C0094FFF7F5FE02B010BDC04698
:1054C00010B583070AD00300032102E001330B4229
:1054D00005D01A78002AF9D1181A10BD03001968EE
:1054E0000C4A0D4C8A188A4322420FD15968094A46
:1054F00004338A188A43224208D15968054A043382
:105500008A188A432242F1D000E001331A78002A37
:10551000FBD1E1E7FFFEFEFE80808080F8B5C0464B
:1055200001B40248844601BC604700BFC1020020AC
:1055300001B40248844601BC604700BF2502002038
:1055400001B40248844601BC604700BFCD0B002077
:1055500001B40248844601BC604700BF110F00201F
:1055600001B40248844601BC604700BFC10000206E
:1055700001B40248844601BC604700BFF50B00201F
:1055800001B40248844601BC604700BF9901002075
:1055900001B40248844601BC604700BFF10300200B
:1055A00001B40248844601BC604700BF01010020ED
:1055B00001B40248844601BC604700BF850C00204E
:1055C00001B40248844601BC604700BF350C00208E
:1055D000E12300100D240010592500109927001018
:1055E000052600100927001081240010292400102E
:1055F000492400105D240010B91600106524001025
:10560000851A0010A923001019110010B102001012
:0456100099300010BD
:1056140031000000320000003300000034000000BC
:105624003500000036000000370000004172746944
:105634007374204100000000417274697374204245
:105644002077697468206E616D6500004172746929
:10565400737420432077697468206C6F6E67657279
:10566400206E616D6500000041727469737420449A
:10567400207769746820612076657279206C6F6E7A
:1056840067206E616D650000417274697374204512
:10569400207769746820616E2065787472656D6521
:1056A4006C79206C6F6E67206E616D650000000080
:1056B400417274697374204620776974682061208C
:1056C4007269646963756C6F75736C79206C6F6E45
:1056D40067206E616D6500004172746973742047C0
:1056E400207769746820746865206C6F6E676573D1
:1056F40074206E616D6520696D6167696E61626CAD
:10570400650000000A2A2A2A2050414E4943202AD3
:105714002A2A0A000A0000004E6F207370696E6C1A
:105724006F636B732061726520617661696C61627D
:105734006C6500004E6F2075736572204952517379
:105744002061726520617661696C61626C6500003C
:10575400486172647761726520616C61726D2025A5
:105764006420616C726561647920636C61696D6544
:105774006400000048617264206173736572740090
:1057840052656C6561736500626F6F74325F773266
:105794003571303830000000302E3100322E312E79
:1057A400310000007069636F000000006D70330009
:1057B4004A756E203135203230323500555342203F
:1057C400737464696E202F207374646F75740000A1
:1057D4005261737062657272792050690000000032
:1057E4005069636F00000000426F6172642043449B
:1057F400430000005265736574000000556E6861D3
:105804006E646C65642049525120307825780A0012
:10581400657020253032582077617320616C726581
:1058240061647920617661696C61626C6500000075
:1058340043616E277420636F6E74696E756520789A
:10584400666572206F6E20696E6163746976652087
:1058540065702025303258006451270505275151C1
:10586400645127050527275164512705050527514C
:10587400645127050505275164512727050527513C
:10588400645151270505275164000000305600106B
:105894003C560010505600106C5600108C560010E8
:1058A400B4560010DC5600101456001018560010A0
:1058B4001C560010205600102456001028560010C4
:1058C4002C560010AED580A83FD300408D14200084
:1058D400A1C8DA1281CFD9F1DB40A4A6AF00000041
:1058E4000000000000000000002F0000000007007E
:1058F400070000147F147F1400242A7F2A12002337
:105904001308646200364955225000000503000064
:1059140000001C224100000041221C000014083E2B
:1059240008140008083E0808000000A060000008F1
:105934000808080800006060000000201008040245
:10594400003E5149453E0000427F40000042615103
:105954004946002141454B31001814127F1000279D
:1059640045454539003C4A49493000017109050360
:1059740000364949493600064949291E0000363691
:1059840000000000563600000008142241000014F4
:1059940014141414000041221408000201510906D1
:1059A40000324959513E007C1211127C007F494952
:1059B4004936003E41414122007F4141221C007F83
:1059C40049494941007F09090901003E4149497A91
:1059D400007F0808087F0000417F4100002040410B
:1059E4003F01007F08142241007F40404040007F77
:1059F400020C027F007F0408107F003E4141413EBB
:105A0400007F09090906003E4151215E007F091902
:105A140029460046494949310001017F0101003FFF
:105A24004040403F001F2040201F003F4038403F7F
:105A340000631408146300070870080700615149E3
:105A4400454300007F414100AA55AA55AA550000CC
:105A540041417F00000402010204004040404040F4
:105A6400000003050000002054545478007F48448B
:105A7400443800384444442000384444487F0038C3
:105A84005454541800087E0901020018A4A4A47CEC
:105A9400007F080404780000447D400000408084B6
:105AA4007D00007F102844000000417F4000007CFE
:105AB40004180478007C080404780038444444380A
:105AC40000FC242424180018242418FC007C080456
